:100000000C945C000C946E000C946E000C946E00CA
:100010000C946E000C946E000C946E000C946E00A8
:100020000C946E000C946E000C946E000C946E0098
:100030000C946E000C946E000C946E000C946E0088
:100040000C941E010C946E000C946E000C946E00C7
:100050000C946E000C946E000C946E000C946E0068
:100060000C946E000C946E00000000080002010069
:100070000003040700000000000000000102040863
:100080001020408001020408102001020408102002
:10009000040404040404040402020202020203032E
:1000A0000303030300000000250028002B000000CC
:1000B0000000240027002A0011241FBECFEFD8E043
:1000C000DEBFCDBF21E0A0E0B1E001C01D92A131B3
:1000D000B207E1F70E9487020C9497020C9400008B
:1000E0000F931F9305E010E024E030E043E050E080
:1000F00062E070E080E091E00E94A9001F910F9102
:10010000089580E091E00E94CA0060ED77E080E011
:1001100090E00E948B0180E091E00E94DF0060EDA2
:1001200077E080E090E00E948B0180E091E00E9407
:10013000F40060ED77E080E090E00E948B0180E0C9
:1001400091E00E94090160ED77E080E090E00C947E
:100150008B010F931F93CF93DF93EC01862F68835E
:1001600079835B834A833D832C831F830E8361E005
:100170000E94170261E08A810E94170261E08C816F
:100180000E94170261E08E81DF91CF911F910F9144
:100190000C941702CF93DF93EC0161E088810E94F9
:1001A000500260E08A810E94500261E08C810E94CE
:1001B000500260E08E81DF91CF910C945002CF937A
:1001C000DF93EC0160E088810E94500261E08A8147
:1001D0000E94500260E08C810E94500261E08E819A
:1001E000DF91CF910C945002CF93DF93EC0160E04C
:1001F00088810E94500260E08A810E94500261E082
:100200008C810E94500260E08E81DF91CF910C942E
:100210005002CF93DF93EC0161E088810E9450028D
:1002200060E08A810E94500260E08C810E9450024E
:1002300060E08E81DF91CF910C9450021F920F925B
:100240000FB60F9211242F933F938F939F93AF93E9
:10025000BF938091090190910A01A0910B01B09187
:100260000C013091080123E0230F2D3720F4019673
:10027000A11DB11D05C026E8230F0296A11DB11DC9
:10028000209308018093090190930A01A0930B0128
:10029000B0930C0180910D0190910E01A0910F017E
:1002A000B09110010196A11DB11D80930D01909395
:1002B0000E01A0930F01B0931001BF91AF919F91D8
:1002C0008F913F912F910F900FBE0F901F90189517
:1002D0003FB7F89480910D0190910E01A0910F010C
:1002E000B091100126B5A89B05C02F3F19F00196CB
:1002F000A11DB11D3FBF6627782F892F9A2F620F4E
:10030000711D811D911D42E0660F771F881F991F87
:100310004A95D1F70895CF92DF92EF92FF92CF9353
:10032000DF936B017C010E946801EB01C114D104D1
:10033000E104F10489F00E9496020E9468016C1B9E
:100340007D0B683E734090F381E0C81AD108E10844
:10035000F108C851DC4FEACFDF91CF91FF90EF90C9
:10036000DF90CF900895789484B5826084BD84B581
:10037000816084BD85B5826085BD85B5816085BDA0
:10038000EEE6F0E0808181608083E1E8F0E01082B9
:10039000808182608083808181608083E0E8F0E0FA
:1003A000808181608083E1EBF0E0808184608083E4
:1003B000E0EBF0E0808181608083EAE7F0E080811B
:1003C000846080838081826080838081816080837B
:1003D0008081806880831092C1000895833081F00D
:1003E00028F4813099F08230A1F008958730A9F087
:1003F0008830B9F08430D1F4809180008F7D03C0C3
:10040000809180008F7780938000089584B58F77E6
:1004100002C084B58F7D84BD08958091B0008F7730
:1004200003C08091B0008F7D8093B0000895CF937A
:10043000DF9390E0FC01E458FF4F2491FC01E0576A
:10044000FF4F8491882349F190E0880F991FFC01A8
:10045000E255FF4FA591B4918C559F4FFC01C5917A
:10046000D4919FB7611108C0F8948C912095822394
:100470008C93888182230AC0623051F4F8948C9165
:10048000322F309583238C938881822B888304C0FC
:10049000F8948C91822B8C939FBFDF91CF9108951C
:1004A0000F931F93CF93DF931F92CDB7DEB7282F03
:1004B00030E0F901E859FF4F8491F901E458FF4F0A
:1004C0001491F901E057FF4F04910023C9F08823EC
:1004D00021F069830E94EE016981E02FF0E0EE0FC8
:1004E000FF1FEC55FF4FA591B4919FB7F8948C91E5
:1004F000611103C01095812301C0812B8C939FBF94
:100500000F90DF91CF911F910F91089508950E9450
:10051000B3010E9486020E947000C0E0D0E00E94F9
:1005200081002097E1F30E940000F9CF0895F8942C
:02053000FFCFFB
:00000001FF
